325002149149H2013072620130726PCNZD1000000076      trevens   :3670                                0.00                                                                                                              25459H                        201307012013070720130701201307070                        1
325002149149D2013072620130726PCNZD1000000076      trevens   :3670          WDR 170534           Y2000.00       40007954          Promotional Accrual                                        232353                 25459D1   Both      Both      201307012013070720130701201307071000                     1
325002149149D2013072620130726PCNZD1000000076      trevens   :3670          WCR 955136           Y2000.00       40007954          Promotional Accrual                                        232353                 25459D2   Both      Both      201307012013070720130701201307071000                     1
