325002149149H2013072620130726PCNZD1000000075      trevens   :3669                                0.00                                                                                                              25451H                        201307012013070720130701201307070                        0
325002149149D2013072620130726PCNZD1000000075      trevens   :3669          DR  170534           Y10000.00      40007954          Promotional Accrual                                        232353                 25451D1   Both      Both      201307012013070720130701201307071000                     0
325002149149D2013072620130726PCNZD1000000075      trevens   :3669          CR  955136           Y10000.00      40007954          Promotional Accrual                                        232353                 25451D2   Both      Both      201307012013070720130701201307071000                     0
