325002149149H2013072620130726PCNZD1000000076      trevens   :3670                                0.00                                                                                                              25455H                        201307012013070720130701201307070                        0
325002149149D2013072620130726PCNZD1000000076      trevens   :3670          DR  170534           Y10000.00      40007954          Promotional Accrual                                        232353                 25455D1   Both      Both      201307012013070720130701201307071000                     0
325002149149D2013072620130726PCNZD1000000076      trevens   :3670          CR  955136           Y10000.00      40007954          Promotional Accrual                                        232353                 25455D2   Both      Both      201307012013070720130701201307071000                     0
