325002149149H2013072620130726PCNZD1000000079      trevens   :3673                                0.00                                                                                                              25472H                        201307082013071420130708201307140                        0
325002149149D2013072620130726PCNZD1000000079      trevens   :3673          WDR 170534           Y5000.00       40007954          Promotional Accrual                                        232353                 25472D1   Both      Both      201307082013071420130708201307141000                     0
325002149149D2013072620130726PCNZD1000000079      trevens   :3673          WCR 955136           Y5000.00       40007954          Promotional Accrual                                        232353                 25472D2   Both      Both      201307082013071420130708201307141000                     0
