325002149149H2013072620130726PCNZD1000000074      trevens   :3668                                0.00                                                                                                              25450H                        201307012013070720130701201307070                        0
325002149149D2013072620130726PCNZD1000000074      trevens   :3668          DR  170534           Y10000.00      40007954          Promotional Accrual                                        232353                 25450D1   Both      Both      201307012013070720130701201307071000                     0
325002149149D2013072620130726PCNZD1000000074      trevens   :3668          CR  955136           Y10000.00      40007954          Promotional Accrual                                        232353                 25450D2   Both      Both      201307012013070720130701201307071000                     0
