325002149149H2013072620130726PCNZD1000000078      trevens   :3672                                0.00                                                                                                              25467H                        201307012013070720130701201307070                        0
325002149149D2013072620130726PCNZD1000000078      trevens   :3672          DR  170534           Y2000.00       40007954          Promotional Accrual                                        232353                 25467D1   Both      Both      201307012013070720130701201307071000                     0
325002149149D2013072620130726PCNZD1000000078      trevens   :3672          CR  955136           Y2000.00       40007954          Promotional Accrual                                        232353                 25467D2   Both      Both      201307012013070720130701201307071000                     0
