325002149149H2013072620130726PCNZD1000000079      trevens   :3673                                0.00                                                                                                              25471H                        201307082013071420130708201307140                        0
325002149149D2013072620130726PCNZD1000000079      trevens   :3673          DR  170534           Y10000.00      40007954          Promotional Accrual                                        232353                 25471D1   Both      Both      201307082013071420130708201307141000                     0
325002149149D2013072620130726PCNZD1000000079      trevens   :3673          CR  955136           Y10000.00      40007954          Promotional Accrual                                        232353                 25471D2   Both      Both      201307082013071420130708201307141000                     0
