325002149149H2013072620130726PCNZD1000000074      trevens   :3668                                0.00                                                                                                              25450H                        201307012013070720130701201307070                        0
325002149149D2013072620130726PCNZD1000000074      trevens   :3668          DR  170534           Y10000.00      40007954          Promotional Accrual                                        232353                 25450D1   Both      Both      201307012013070720130701201307071000                     0
325002149149D2013072620130726PCNZD1000000074      trevens   :3668          CR  955136           Y10000.00      40007954          Promotional Accrual                                        232353                 25450D2   Both      Both      201307012013070720130701201307071000                     0
325002149149H2013072620130726PCNZD1000000075      trevens   :3669                                0.00                                                                                                              25451H                        201307012013070720130701201307070                        0
325002149149D2013072620130726PCNZD1000000075      trevens   :3669          DR  170534           Y10000.00      40007954          Promotional Accrual                                        232353                 25451D1   Both      Both      201307012013070720130701201307071000                     0
325002149149D2013072620130726PCNZD1000000075      trevens   :3669          CR  955136           Y10000.00      40007954          Promotional Accrual                                        232353                 25451D2   Both      Both      201307012013070720130701201307071000                     0
325002149149H2013072620130726PCNZD1000000076      trevens   :3670                                0.00                                                                                                              25455H                        201307012013070720130701201307070                        0
325002149149D2013072620130726PCNZD1000000076      trevens   :3670          DR  170534           Y10000.00      40007954          Promotional Accrual                                        232353                 25455D1   Both      Both      201307012013070720130701201307071000                     0
325002149149D2013072620130726PCNZD1000000076      trevens   :3670          CR  955136           Y10000.00      40007954          Promotional Accrual                                        232353                 25455D2   Both      Both      201307012013070720130701201307071000                     0
325002149149H2013072620130726PCNZD1000000076      trevens   :3670                                0.00                                                                                                              25459H                        201307012013070720130701201307070                        1
325002149149D2013072620130726PCNZD1000000076      trevens   :3670          WDR 170534           Y2000.00       40007954          Promotional Accrual                                        232353                 25459D1   Both      Both      201307012013070720130701201307071000                     1
325002149149D2013072620130726PCNZD1000000076      trevens   :3670          WCR 955136           Y2000.00       40007954          Promotional Accrual                                        232353                 25459D2   Both      Both      201307012013070720130701201307071000                     1
325002149149H2013072620130726PCNZD1000000077      trevens   :3671                                0.00                                                                                                              25460H                        201307012013070720130701201307070                        0
325002149149D2013072620130726PCNZD1000000077      trevens   :3671          DR  170534           Y10000.00      40007954          Promotional Accrual                                        232353                 25460D1   Both      Both      201307012013070720130701201307071000                     0
325002149149D2013072620130726PCNZD1000000077      trevens   :3671          CR  955136           Y10000.00      40007954          Promotional Accrual                                        232353                 25460D2   Both      Both      201307012013070720130701201307071000                     0
325002149149H2013072620130726PCNZD1000000077      trevens   :3671                                0.00                                                                                                              25462H                        201307012013070720130701201307070                        0
325002149149D2013072620130726PCNZD1000000077      trevens   :3671          DR  170534           Y2000.00       40007954          Promotional Accrual                                        232353                 25462D1   Both      Both      201307012013070720130701201307071000                     0
325002149149D2013072620130726PCNZD1000000077      trevens   :3671          CR  955136           Y2000.00       40007954          Promotional Accrual                                        232353                 25462D2   Both      Both      201307012013070720130701201307071000                     0
325002149149H2013072620130726PCNZD1000000078      trevens   :3672                                0.00                                                                                                              25465H                        201307012013070720130701201307070                        0
325002149149D2013072620130726PCNZD1000000078      trevens   :3672          DR  170534           Y10000.00      40007954          Promotional Accrual                                        232353                 25465D1   Both      Both      201307012013070720130701201307071000                     0
325002149149D2013072620130726PCNZD1000000078      trevens   :3672          CR  955136           Y10000.00      40007954          Promotional Accrual                                        232353                 25465D2   Both      Both      201307012013070720130701201307071000                     0
325002149149H2013072620130726PCNZD1000000078      trevens   :3672                                0.00                                                                                                              25467H                        201307012013070720130701201307070                        0
325002149149D2013072620130726PCNZD1000000078      trevens   :3672          DR  170534           Y2000.00       40007954          Promotional Accrual                                        232353                 25467D1   Both      Both      201307012013070720130701201307071000                     0
325002149149D2013072620130726PCNZD1000000078      trevens   :3672          CR  955136           Y2000.00       40007954          Promotional Accrual                                        232353                 25467D2   Both      Both      201307012013070720130701201307071000                     0
325002149149H2013072620130726PCNZD1000000079      trevens   :3673                                0.00                                                                                                              25471H                        201307082013071420130708201307140                        0
325002149149D2013072620130726PCNZD1000000079      trevens   :3673          DR  170534           Y10000.00      40007954          Promotional Accrual                                        232353                 25471D1   Both      Both      201307082013071420130708201307141000                     0
325002149149D2013072620130726PCNZD1000000079      trevens   :3673          CR  955136           Y10000.00      40007954          Promotional Accrual                                        232353                 25471D2   Both      Both      201307082013071420130708201307141000                     0
325002149149H2013072620130726PCNZD1000000079      trevens   :3673                                0.00                                                                                                              25472H                        201307082013071420130708201307140                        0
325002149149D2013072620130726PCNZD1000000079      trevens   :3673          WDR 170534           Y5000.00       40007954          Promotional Accrual                                        232353                 25472D1   Both      Both      201307082013071420130708201307141000                     0
325002149149D2013072620130726PCNZD1000000079      trevens   :3673          WCR 955136           Y5000.00       40007954          Promotional Accrual                                        232353                 25472D2   Both      Both      201307082013071420130708201307141000                     0
325002149149H2013072620130726PCNZD1000000074      trevens   :3668                                0.00                                                                                                              25450H                        201307012013070720130701201307070                        0
325002149149D2013072620130726PCNZD1000000074      trevens   :3668          DR  170534           Y10000.00      40007954          Promotional Accrual                                        232353                 25450D1   Both      Both      201307012013070720130701201307071000                     0
325002149149D2013072620130726PCNZD1000000074      trevens   :3668          CR  955136           Y10000.00      40007954          Promotional Accrual                                        232353                 25450D2   Both      Both      201307012013070720130701201307071000                     0
325002149149H2013072620130726PCNZD1000000075      trevens   :3669                                0.00                                                                                                              25451H                        201307012013070720130701201307070                        0
325002149149D2013072620130726PCNZD1000000075      trevens   :3669          DR  170534           Y10000.00      40007954          Promotional Accrual                                        232353                 25451D1   Both      Both      201307012013070720130701201307071000                     0
325002149149D2013072620130726PCNZD1000000075      trevens   :3669          CR  955136           Y10000.00      40007954          Promotional Accrual                                        232353                 25451D2   Both      Both      201307012013070720130701201307071000                     0
325002149149H2013072620130726PCNZD1000000076      trevens   :3670                                0.00                                                                                                              25455H                        201307012013070720130701201307070                        0
325002149149D2013072620130726PCNZD1000000076      trevens   :3670          DR  170534           Y10000.00      40007954          Promotional Accrual                                        232353                 25455D1   Both      Both      201307012013070720130701201307071000                     0
325002149149D2013072620130726PCNZD1000000076      trevens   :3670          CR  955136           Y10000.00      40007954          Promotional Accrual                                        232353                 25455D2   Both      Both      201307012013070720130701201307071000                     0
325002149149H2013072620130726PCNZD1000000076      trevens   :3670                                0.00                                                                                                              25459H                        201307012013070720130701201307070                        1
325002149149D2013072620130726PCNZD1000000076      trevens   :3670          WDR 170534           Y2000.00       40007954          Promotional Accrual                                        232353                 25459D1   Both      Both      201307012013070720130701201307071000                     1
325002149149D2013072620130726PCNZD1000000076      trevens   :3670          WCR 955136           Y2000.00       40007954          Promotional Accrual                                        232353                 25459D2   Both      Both      201307012013070720130701201307071000                     1
325002149149H2013072620130726PCNZD1000000077      trevens   :3671                                0.00                                                                                                              25460H                        201307012013070720130701201307070                        0
325002149149D2013072620130726PCNZD1000000077      trevens   :3671          DR  170534           Y10000.00      40007954          Promotional Accrual                                        232353                 25460D1   Both      Both      201307012013070720130701201307071000                     0
325002149149D2013072620130726PCNZD1000000077      trevens   :3671          CR  955136           Y10000.00      40007954          Promotional Accrual                                        232353                 25460D2   Both      Both      201307012013070720130701201307071000                     0
325002149149H2013072620130726PCNZD1000000077      trevens   :3671                                0.00                                                                                                              25462H                        201307012013070720130701201307070                        0
325002149149D2013072620130726PCNZD1000000077      trevens   :3671          DR  170534           Y2000.00       40007954          Promotional Accrual                                        232353                 25462D1   Both      Both      201307012013070720130701201307071000                     0
325002149149D2013072620130726PCNZD1000000077      trevens   :3671          CR  955136           Y2000.00       40007954          Promotional Accrual                                        232353                 25462D2   Both      Both      201307012013070720130701201307071000                     0
325002149149H2013072620130726PCNZD1000000078      trevens   :3672                                0.00                                                                                                              25465H                        201307012013070720130701201307070                        0
325002149149D2013072620130726PCNZD1000000078      trevens   :3672          DR  170534           Y10000.00      40007954          Promotional Accrual                                        232353                 25465D1   Both      Both      201307012013070720130701201307071000                     0
325002149149D2013072620130726PCNZD1000000078      trevens   :3672          CR  955136           Y10000.00      40007954          Promotional Accrual                                        232353                 25465D2   Both      Both      201307012013070720130701201307071000                     0
325002149149H2013072620130726PCNZD1000000078      trevens   :3672                                0.00                                                                                                              25467H                        201307012013070720130701201307070                        0
325002149149D2013072620130726PCNZD1000000078      trevens   :3672          DR  170534           Y2000.00       40007954          Promotional Accrual                                        232353                 25467D1   Both      Both      201307012013070720130701201307071000                     0
325002149149D2013072620130726PCNZD1000000078      trevens   :3672          CR  955136           Y2000.00       40007954          Promotional Accrual                                        232353                 25467D2   Both      Both      201307012013070720130701201307071000                     0
325002149149H2013072620130726PCNZD1000000079      trevens   :3673                                0.00                                                                                                              25471H                        201307082013071420130708201307140                        0
325002149149D2013072620130726PCNZD1000000079      trevens   :3673          DR  170534           Y10000.00      40007954          Promotional Accrual                                        232353                 25471D1   Both      Both      201307082013071420130708201307141000                     0
325002149149D2013072620130726PCNZD1000000079      trevens   :3673          CR  955136           Y10000.00      40007954          Promotional Accrual                                        232353                 25471D2   Both      Both      201307082013071420130708201307141000                     0
325002149149H2013072620130726PCNZD1000000079      trevens   :3673                                0.00                                                                                                              25472H                        201307082013071420130708201307140                        0
325002149149D2013072620130726PCNZD1000000079      trevens   :3673          WDR 170534           Y5000.00       40007954          Promotional Accrual                                        232353                 25472D1   Both      Both      201307082013071420130708201307141000                     0
325002149149D2013072620130726PCNZD1000000079      trevens   :3673          WCR 955136           Y5000.00       40007954          Promotional Accrual                                        232353                 25472D2   Both      Both      201307082013071420130708201307141000                     0
325002149149H2013072620130726PCNZD1000000074      trevens   :3668                                0.00                                                                                                              25450H                        201307012013070720130701201307070                        0
325002149149D2013072620130726PCNZD1000000074      trevens   :3668          DR  170534           Y10000.00      40007954          Promotional Accrual                                        232353                 25450D1   Both      Both      201307012013070720130701201307071000                     0
325002149149D2013072620130726PCNZD1000000074      trevens   :3668          CR  955136           Y10000.00      40007954          Promotional Accrual                                        232353                 25450D2   Both      Both      201307012013070720130701201307071000                     0
325002149149H2013072620130726PCNZD1000000075      trevens   :3669                                0.00                                                                                                              25451H                        201307012013070720130701201307070                        0
325002149149D2013072620130726PCNZD1000000075      trevens   :3669          DR  170534           Y10000.00      40007954          Promotional Accrual                                        232353                 25451D1   Both      Both      201307012013070720130701201307071000                     0
325002149149D2013072620130726PCNZD1000000075      trevens   :3669          CR  955136           Y10000.00      40007954          Promotional Accrual                                        232353                 25451D2   Both      Both      201307012013070720130701201307071000                     0
325002149149H2013072620130726PCNZD1000000076      trevens   :3670                                0.00                                                                                                              25455H                        201307012013070720130701201307070                        0
325002149149D2013072620130726PCNZD1000000076      trevens   :3670          DR  170534           Y10000.00      40007954          Promotional Accrual                                        232353                 25455D1   Both      Both      201307012013070720130701201307071000                     0
325002149149D2013072620130726PCNZD1000000076      trevens   :3670          CR  955136           Y10000.00      40007954          Promotional Accrual                                        232353                 25455D2   Both      Both      201307012013070720130701201307071000                     0
325002149149H2013072620130726PCNZD1000000076      trevens   :3670                                0.00                                                                                                              25459H                        201307012013070720130701201307070                        1
325002149149D2013072620130726PCNZD1000000076      trevens   :3670          WDR 170534           Y2000.00       40007954          Promotional Accrual                                        232353                 25459D1   Both      Both      201307012013070720130701201307071000                     1
325002149149D2013072620130726PCNZD1000000076      trevens   :3670          WCR 955136           Y2000.00       40007954          Promotional Accrual                                        232353                 25459D2   Both      Both      201307012013070720130701201307071000                     1
325002149149H2013072620130726PCNZD1000000077      trevens   :3671                                0.00                                                                                                              25460H                        201307012013070720130701201307070                        0
325002149149D2013072620130726PCNZD1000000077      trevens   :3671          DR  170534           Y10000.00      40007954          Promotional Accrual                                        232353                 25460D1   Both      Both      201307012013070720130701201307071000                     0
325002149149D2013072620130726PCNZD1000000077      trevens   :3671          CR  955136           Y10000.00      40007954          Promotional Accrual                                        232353                 25460D2   Both      Both      201307012013070720130701201307071000                     0
325002149149H2013072620130726PCNZD1000000077      trevens   :3671                                0.00                                                                                                              25462H                        201307012013070720130701201307070                        0
325002149149D2013072620130726PCNZD1000000077      trevens   :3671          DR  170534           Y2000.00       40007954          Promotional Accrual                                        232353                 25462D1   Both      Both      201307012013070720130701201307071000                     0
325002149149D2013072620130726PCNZD1000000077      trevens   :3671          CR  955136           Y2000.00       40007954          Promotional Accrual                                        232353                 25462D2   Both      Both      201307012013070720130701201307071000                     0
325002149149H2013072620130726PCNZD1000000078      trevens   :3672                                0.00                                                                                                              25465H                        201307012013070720130701201307070                        0
325002149149D2013072620130726PCNZD1000000078      trevens   :3672          DR  170534           Y10000.00      40007954          Promotional Accrual                                        232353                 25465D1   Both      Both      201307012013070720130701201307071000                     0
325002149149D2013072620130726PCNZD1000000078      trevens   :3672          CR  955136           Y10000.00      40007954          Promotional Accrual                                        232353                 25465D2   Both      Both      201307012013070720130701201307071000                     0
325002149149H2013072620130726PCNZD1000000078      trevens   :3672                                0.00                                                                                                              25467H                        201307012013070720130701201307070                        0
325002149149D2013072620130726PCNZD1000000078      trevens   :3672          DR  170534           Y2000.00       40007954          Promotional Accrual                                        232353                 25467D1   Both      Both      201307012013070720130701201307071000                     0
325002149149D2013072620130726PCNZD1000000078      trevens   :3672          CR  955136           Y2000.00       40007954          Promotional Accrual                                        232353                 25467D2   Both      Both      201307012013070720130701201307071000                     0
325002149149H2013072620130726PCNZD1000000079      trevens   :3673                                0.00                                                                                                              25471H                        201307082013071420130708201307140                        0
325002149149D2013072620130726PCNZD1000000079      trevens   :3673          DR  170534           Y10000.00      40007954          Promotional Accrual                                        232353                 25471D1   Both      Both      201307082013071420130708201307141000                     0
325002149149D2013072620130726PCNZD1000000079      trevens   :3673          CR  955136           Y10000.00      40007954          Promotional Accrual                                        232353                 25471D2   Both      Both      201307082013071420130708201307141000                     0
325002149149H2013072620130726PCNZD1000000079      trevens   :3673                                0.00                                                                                                              25472H                        201307082013071420130708201307140                        0
325002149149D2013072620130726PCNZD1000000079      trevens   :3673          WDR 170534           Y5000.00       40007954          Promotional Accrual                                        232353                 25472D1   Both      Both      201307082013071420130708201307141000                     0
325002149149D2013072620130726PCNZD1000000079      trevens   :3673          WCR 955136           Y5000.00       40007954          Promotional Accrual                                        232353                 25472D2   Both      Both      201307082013071420130708201307141000                     0
325002149149H2013072620130726PCNZD1000000074      trevens   :3668                                0.00                                                                                                              25450H                        201307012013070720130701201307070                        0
325002149149D2013072620130726PCNZD1000000074      trevens   :3668          DR  170534           Y10000.00      40007954          Promotional Accrual                                        232353                 25450D1   Both      Both      201307012013070720130701201307071000                     0
325002149149D2013072620130726PCNZD1000000074      trevens   :3668          CR  955136           Y10000.00      40007954          Promotional Accrual                                        232353                 25450D2   Both      Both      201307012013070720130701201307071000                     0
325002149149H2013072620130726PCNZD1000000075      trevens   :3669                                0.00                                                                                                              25451H                        201307012013070720130701201307070                        0
325002149149D2013072620130726PCNZD1000000075      trevens   :3669          DR  170534           Y10000.00      40007954          Promotional Accrual                                        232353                 25451D1   Both      Both      201307012013070720130701201307071000                     0
325002149149D2013072620130726PCNZD1000000075      trevens   :3669          CR  955136           Y10000.00      40007954          Promotional Accrual                                        232353                 25451D2   Both      Both      201307012013070720130701201307071000                     0
325002149149H2013072620130726PCNZD1000000076      trevens   :3670                                0.00                                                                                                              25455H                        201307012013070720130701201307070                        0
325002149149D2013072620130726PCNZD1000000076      trevens   :3670          DR  170534           Y10000.00      40007954          Promotional Accrual                                        232353                 25455D1   Both      Both      201307012013070720130701201307071000                     0
325002149149D2013072620130726PCNZD1000000076      trevens   :3670          CR  955136           Y10000.00      40007954          Promotional Accrual                                        232353                 25455D2   Both      Both      201307012013070720130701201307071000                     0
325002149149H2013072620130726PCNZD1000000076      trevens   :3670                                0.00                                                                                                              25459H                        201307012013070720130701201307070                        1
325002149149D2013072620130726PCNZD1000000076      trevens   :3670          WDR 170534           Y2000.00       40007954          Promotional Accrual                                        232353                 25459D1   Both      Both      201307012013070720130701201307071000                     1
325002149149D2013072620130726PCNZD1000000076      trevens   :3670          WCR 955136           Y2000.00       40007954          Promotional Accrual                                        232353                 25459D2   Both      Both      201307012013070720130701201307071000                     1
325002149149H2013072620130726PCNZD1000000077      trevens   :3671                                0.00                                                                                                              25460H                        201307012013070720130701201307070                        0
325002149149D2013072620130726PCNZD1000000077      trevens   :3671          DR  170534           Y10000.00      40007954          Promotional Accrual                                        232353                 25460D1   Both      Both      201307012013070720130701201307071000                     0
325002149149D2013072620130726PCNZD1000000077      trevens   :3671          CR  955136           Y10000.00      40007954          Promotional Accrual                                        232353                 25460D2   Both      Both      201307012013070720130701201307071000                     0
325002149149H2013072620130726PCNZD1000000077      trevens   :3671                                0.00                                                                                                              25462H                        201307012013070720130701201307070                        0
325002149149D2013072620130726PCNZD1000000077      trevens   :3671          DR  170534           Y2000.00       40007954          Promotional Accrual                                        232353                 25462D1   Both      Both      201307012013070720130701201307071000                     0
325002149149D2013072620130726PCNZD1000000077      trevens   :3671          CR  955136           Y2000.00       40007954          Promotional Accrual                                        232353                 25462D2   Both      Both      201307012013070720130701201307071000                     0
325002149149H2013072620130726PCNZD1000000078      trevens   :3672                                0.00                                                                                                              25465H                        201307012013070720130701201307070                        0
325002149149D2013072620130726PCNZD1000000078      trevens   :3672          DR  170534           Y10000.00      40007954          Promotional Accrual                                        232353                 25465D1   Both      Both      201307012013070720130701201307071000                     0
325002149149D2013072620130726PCNZD1000000078      trevens   :3672          CR  955136           Y10000.00      40007954          Promotional Accrual                                        232353                 25465D2   Both      Both      201307012013070720130701201307071000                     0
325002149149H2013072620130726PCNZD1000000078      trevens   :3672                                0.00                                                                                                              25467H                        201307012013070720130701201307070                        0
325002149149D2013072620130726PCNZD1000000078      trevens   :3672          DR  170534           Y2000.00       40007954          Promotional Accrual                                        232353                 25467D1   Both      Both      201307012013070720130701201307071000                     0
325002149149D2013072620130726PCNZD1000000078      trevens   :3672          CR  955136           Y2000.00       40007954          Promotional Accrual                                        232353                 25467D2   Both      Both      201307012013070720130701201307071000                     0
325002149149H2013072620130726PCNZD1000000079      trevens   :3673                                0.00                                                                                                              25471H                        201307082013071420130708201307140                        0
325002149149D2013072620130726PCNZD1000000079      trevens   :3673          DR  170534           Y10000.00      40007954          Promotional Accrual                                        232353                 25471D1   Both      Both      201307082013071420130708201307141000                     0
325002149149D2013072620130726PCNZD1000000079      trevens   :3673          CR  955136           Y10000.00      40007954          Promotional Accrual                                        232353                 25471D2   Both      Both      201307082013071420130708201307141000                     0
325002149149H2013072620130726PCNZD1000000079      trevens   :3673                                0.00                                                                                                              25472H                        201307082013071420130708201307140                        0
325002149149D2013072620130726PCNZD1000000079      trevens   :3673          WDR 170534           Y5000.00       40007954          Promotional Accrual                                        232353                 25472D1   Both      Both      201307082013071420130708201307141000                     0
325002149149D2013072620130726PCNZD1000000079      trevens   :3673          WCR 955136           Y5000.00       40007954          Promotional Accrual                                        232353                 25472D2   Both      Both      201307082013071420130708201307141000                     0
325002149149H2013072620130726PCNZD1000000074      trevens   :3668                                0.00                                                                                                              25450H                        201307012013070720130701201307070                        0
325002149149D2013072620130726PCNZD1000000074      trevens   :3668          DR  170534           Y10000.00      40007954          Promotional Accrual                                        232353                 25450D1   Both      Both      201307012013070720130701201307071000                     0
325002149149D2013072620130726PCNZD1000000074      trevens   :3668          CR  955136           Y10000.00      40007954          Promotional Accrual                                        232353                 25450D2   Both      Both      201307012013070720130701201307071000                     0
325002149149H2013072620130726PCNZD1000000075      trevens   :3669                                0.00                                                                                                              25451H                        201307012013070720130701201307070                        0
325002149149D2013072620130726PCNZD1000000075      trevens   :3669          DR  170534           Y10000.00      40007954          Promotional Accrual                                        232353                 25451D1   Both      Both      201307012013070720130701201307071000                     0
325002149149D2013072620130726PCNZD1000000075      trevens   :3669          CR  955136           Y10000.00      40007954          Promotional Accrual                                        232353                 25451D2   Both      Both      201307012013070720130701201307071000                     0
325002149149H2013072620130726PCNZD1000000076      trevens   :3670                                0.00                                                                                                              25455H                        201307012013070720130701201307070                        0
325002149149D2013072620130726PCNZD1000000076      trevens   :3670          DR  170534           Y10000.00      40007954          Promotional Accrual                                        232353                 25455D1   Both      Both      201307012013070720130701201307071000                     0
325002149149D2013072620130726PCNZD1000000076      trevens   :3670          CR  955136           Y10000.00      40007954          Promotional Accrual                                        232353                 25455D2   Both      Both      201307012013070720130701201307071000                     0
325002149149H2013072620130726PCNZD1000000076      trevens   :3670                                0.00                                                                                                              25459H                        201307012013070720130701201307070                        1
325002149149D2013072620130726PCNZD1000000076      trevens   :3670          WDR 170534           Y2000.00       40007954          Promotional Accrual                                        232353                 25459D1   Both      Both      201307012013070720130701201307071000                     1
325002149149D2013072620130726PCNZD1000000076      trevens   :3670          WCR 955136           Y2000.00       40007954          Promotional Accrual                                        232353                 25459D2   Both      Both      201307012013070720130701201307071000                     1
325002149149H2013072620130726PCNZD1000000077      trevens   :3671                                0.00                                                                                                              25460H                        201307012013070720130701201307070                        0
325002149149D2013072620130726PCNZD1000000077      trevens   :3671          DR  170534           Y10000.00      40007954          Promotional Accrual                                        232353                 25460D1   Both      Both      201307012013070720130701201307071000                     0
325002149149D2013072620130726PCNZD1000000077      trevens   :3671          CR  955136           Y10000.00      40007954          Promotional Accrual                                        232353                 25460D2   Both      Both      201307012013070720130701201307071000                     0
325002149149H2013072620130726PCNZD1000000077      trevens   :3671                                0.00                                                                                                              25462H                        201307012013070720130701201307070                        0
325002149149D2013072620130726PCNZD1000000077      trevens   :3671          DR  170534           Y2000.00       40007954          Promotional Accrual                                        232353                 25462D1   Both      Both      201307012013070720130701201307071000                     0
325002149149D2013072620130726PCNZD1000000077      trevens   :3671          CR  955136           Y2000.00       40007954          Promotional Accrual                                        232353                 25462D2   Both      Both      201307012013070720130701201307071000                     0
325002149149H2013072620130726PCNZD1000000078      trevens   :3672                                0.00                                                                                                              25465H                        201307012013070720130701201307070                        0
325002149149D2013072620130726PCNZD1000000078      trevens   :3672          DR  170534           Y10000.00      40007954          Promotional Accrual                                        232353                 25465D1   Both      Both      201307012013070720130701201307071000                     0
325002149149D2013072620130726PCNZD1000000078      trevens   :3672          CR  955136           Y10000.00      40007954          Promotional Accrual                                        232353                 25465D2   Both      Both      201307012013070720130701201307071000                     0
325002149149H2013072620130726PCNZD1000000078      trevens   :3672                                0.00                                                                                                              25467H                        201307012013070720130701201307070                        0
325002149149D2013072620130726PCNZD1000000078      trevens   :3672          DR  170534           Y2000.00       40007954          Promotional Accrual                                        232353                 25467D1   Both      Both      201307012013070720130701201307071000                     0
325002149149D2013072620130726PCNZD1000000078      trevens   :3672          CR  955136           Y2000.00       40007954          Promotional Accrual                                        232353                 25467D2   Both      Both      201307012013070720130701201307071000                     0
325002149149H2013072620130726PCNZD1000000079      trevens   :3673                                0.00                                                                                                              25471H                        201307082013071420130708201307140                        0
325002149149D2013072620130726PCNZD1000000079      trevens   :3673          DR  170534           Y10000.00      40007954          Promotional Accrual                                        232353                 25471D1   Both      Both      201307082013071420130708201307141000                     0
325002149149D2013072620130726PCNZD1000000079      trevens   :3673          CR  955136           Y10000.00      40007954          Promotional Accrual                                        232353                 25471D2   Both      Both      201307082013071420130708201307141000                     0
325002149149H2013072620130726PCNZD1000000079      trevens   :3673                                0.00                                                                                                              25472H                        201307082013071420130708201307140                        0
325002149149D2013072620130726PCNZD1000000079      trevens   :3673          WDR 170534           Y5000.00       40007954          Promotional Accrual                                        232353                 25472D1   Both      Both      201307082013071420130708201307141000                     0
325002149149D2013072620130726PCNZD1000000079      trevens   :3673          WCR 955136           Y5000.00       40007954          Promotional Accrual                                        232353                 25472D2   Both      Both      201307082013071420130708201307141000                     0
325002149149H2013072620130726PCNZD1000000074      trevens   :3668                                0.00                                                                                                              25450H                        201307012013070720130701201307070                        0
325002149149D2013072620130726PCNZD1000000074      trevens   :3668          DR  170534           Y10000.00      40007954          Promotional Accrual                                        232353                 25450D1   Both      Both      201307012013070720130701201307071000                     0
325002149149D2013072620130726PCNZD1000000074      trevens   :3668          CR  955136           Y10000.00      40007954          Promotional Accrual                                        232353                 25450D2   Both      Both      201307012013070720130701201307071000                     0
325002149149H2013072620130726PCNZD1000000075      trevens   :3669                                0.00                                                                                                              25451H                        201307012013070720130701201307070                        0
325002149149D2013072620130726PCNZD1000000075      trevens   :3669          DR  170534           Y10000.00      40007954          Promotional Accrual                                        232353                 25451D1   Both      Both      201307012013070720130701201307071000                     0
325002149149D2013072620130726PCNZD1000000075      trevens   :3669          CR  955136           Y10000.00      40007954          Promotional Accrual                                        232353                 25451D2   Both      Both      201307012013070720130701201307071000                     0
325002149149H2013072620130726PCNZD1000000076      trevens   :3670                                0.00                                                                                                              25455H                        201307012013070720130701201307070                        0
325002149149D2013072620130726PCNZD1000000076      trevens   :3670          DR  170534           Y10000.00      40007954          Promotional Accrual                                        232353                 25455D1   Both      Both      201307012013070720130701201307071000                     0
325002149149D2013072620130726PCNZD1000000076      trevens   :3670          CR  955136           Y10000.00      40007954          Promotional Accrual                                        232353                 25455D2   Both      Both      201307012013070720130701201307071000                     0
325002149149H2013072620130726PCNZD1000000076      trevens   :3670                                0.00                                                                                                              25459H                        201307012013070720130701201307070                        1
325002149149D2013072620130726PCNZD1000000076      trevens   :3670          WDR 170534           Y2000.00       40007954          Promotional Accrual                                        232353                 25459D1   Both      Both      201307012013070720130701201307071000                     1
325002149149D2013072620130726PCNZD1000000076      trevens   :3670          WCR 955136           Y2000.00       40007954          Promotional Accrual                                        232353                 25459D2   Both      Both      201307012013070720130701201307071000                     1
325002149149H2013072620130726PCNZD1000000077      trevens   :3671                                0.00                                                                                                              25460H                        201307012013070720130701201307070                        0
325002149149D2013072620130726PCNZD1000000077      trevens   :3671          DR  170534           Y10000.00      40007954          Promotional Accrual                                        232353                 25460D1   Both      Both      201307012013070720130701201307071000                     0
325002149149D2013072620130726PCNZD1000000077      trevens   :3671          CR  955136           Y10000.00      40007954          Promotional Accrual                                        232353                 25460D2   Both      Both      201307012013070720130701201307071000                     0
325002149149H2013072620130726PCNZD1000000077      trevens   :3671                                0.00                                                                                                              25462H                        201307012013070720130701201307070                        0
325002149149D2013072620130726PCNZD1000000077      trevens   :3671          DR  170534           Y2000.00       40007954          Promotional Accrual                                        232353                 25462D1   Both      Both      201307012013070720130701201307071000                     0
325002149149D2013072620130726PCNZD1000000077      trevens   :3671          CR  955136           Y2000.00       40007954          Promotional Accrual                                        232353                 25462D2   Both      Both      201307012013070720130701201307071000                     0
325002149149H2013072620130726PCNZD1000000078      trevens   :3672                                0.00                                                                                                              25465H                        201307012013070720130701201307070                        0
325002149149D2013072620130726PCNZD1000000078      trevens   :3672          DR  170534           Y10000.00      40007954          Promotional Accrual                                        232353                 25465D1   Both      Both      201307012013070720130701201307071000                     0
325002149149D2013072620130726PCNZD1000000078      trevens   :3672          CR  955136           Y10000.00      40007954          Promotional Accrual                                        232353                 25465D2   Both      Both      201307012013070720130701201307071000                     0
325002149149H2013072620130726PCNZD1000000078      trevens   :3672                                0.00                                                                                                              25467H                        201307012013070720130701201307070                        0
325002149149D2013072620130726PCNZD1000000078      trevens   :3672          DR  170534           Y2000.00       40007954          Promotional Accrual                                        232353                 25467D1   Both      Both      201307012013070720130701201307071000                     0
325002149149D2013072620130726PCNZD1000000078      trevens   :3672          CR  955136           Y2000.00       40007954          Promotional Accrual                                        232353                 25467D2   Both      Both      201307012013070720130701201307071000                     0
325002149149H2013072620130726PCNZD1000000079      trevens   :3673                                0.00                                                                                                              25471H                        201307082013071420130708201307140                        0
325002149149D2013072620130726PCNZD1000000079      trevens   :3673          DR  170534           Y10000.00      40007954          Promotional Accrual                                        232353                 25471D1   Both      Both      201307082013071420130708201307141000                     0
325002149149D2013072620130726PCNZD1000000079      trevens   :3673          CR  955136           Y10000.00      40007954          Promotional Accrual                                        232353                 25471D2   Both      Both      201307082013071420130708201307141000                     0
325002149149H2013072620130726PCNZD1000000079      trevens   :3673                                0.00                                                                                                              25472H                        201307082013071420130708201307140                        0
325002149149D2013072620130726PCNZD1000000079      trevens   :3673          WDR 170534           Y5000.00       40007954          Promotional Accrual                                        232353                 25472D1   Both      Both      201307082013071420130708201307141000                     0
325002149149D2013072620130726PCNZD1000000079      trevens   :3673          WCR 955136           Y5000.00       40007954          Promotional Accrual                                        232353                 25472D2   Both      Both      201307082013071420130708201307141000                     0
325002149149H2013072620130726PCNZD1000000074      trevens   :3668                                0.00                                                                                                              25450H                        201307012013070720130701201307070                        0
325002149149D2013072620130726PCNZD1000000074      trevens   :3668          DR  170534           Y10000.00      40007954          Promotional Accrual                                        232353                 25450D1   Both      Both      201307012013070720130701201307071000                     0
325002149149D2013072620130726PCNZD1000000074      trevens   :3668          CR  955136           Y10000.00      40007954          Promotional Accrual                                        232353                 25450D2   Both      Both      201307012013070720130701201307071000                     0
325002149149H2013072620130726PCNZD1000000075      trevens   :3669                                0.00                                                                                                              25451H                        201307012013070720130701201307070                        0
325002149149D2013072620130726PCNZD1000000075      trevens   :3669          DR  170534           Y10000.00      40007954          Promotional Accrual                                        232353                 25451D1   Both      Both      201307012013070720130701201307071000                     0
325002149149D2013072620130726PCNZD1000000075      trevens   :3669          CR  955136           Y10000.00      40007954          Promotional Accrual                                        232353                 25451D2   Both      Both      201307012013070720130701201307071000                     0
325002149149H2013072620130726PCNZD1000000076      trevens   :3670                                0.00                                                                                                              25455H                        201307012013070720130701201307070                        0
325002149149D2013072620130726PCNZD1000000076      trevens   :3670          DR  170534           Y10000.00      40007954          Promotional Accrual                                        232353                 25455D1   Both      Both      201307012013070720130701201307071000                     0
325002149149D2013072620130726PCNZD1000000076      trevens   :3670          CR  955136           Y10000.00      40007954          Promotional Accrual                                        232353                 25455D2   Both      Both      201307012013070720130701201307071000                     0
325002149149H2013072620130726PCNZD1000000076      trevens   :3670                                0.00                                                                                                              25459H                        201307012013070720130701201307070                        1
325002149149D2013072620130726PCNZD1000000076      trevens   :3670          WDR 170534           Y2000.00       40007954          Promotional Accrual                                        232353                 25459D1   Both      Both      201307012013070720130701201307071000                     1
325002149149D2013072620130726PCNZD1000000076      trevens   :3670          WCR 955136           Y2000.00       40007954          Promotional Accrual                                        232353                 25459D2   Both      Both      201307012013070720130701201307071000                     1
325002149149H2013072620130726PCNZD1000000077      trevens   :3671                                0.00                                                                                                              25460H                        201307012013070720130701201307070                        0
325002149149D2013072620130726PCNZD1000000077      trevens   :3671          DR  170534           Y10000.00      40007954          Promotional Accrual                                        232353                 25460D1   Both      Both      201307012013070720130701201307071000                     0
325002149149D2013072620130726PCNZD1000000077      trevens   :3671          CR  955136           Y10000.00      40007954          Promotional Accrual                                        232353                 25460D2   Both      Both      201307012013070720130701201307071000                     0
325002149149H2013072620130726PCNZD1000000077      trevens   :3671                                0.00                                                                                                              25462H                        201307012013070720130701201307070                        0
325002149149D2013072620130726PCNZD1000000077      trevens   :3671          DR  170534           Y2000.00       40007954          Promotional Accrual                                        232353                 25462D1   Both      Both      201307012013070720130701201307071000                     0
325002149149D2013072620130726PCNZD1000000077      trevens   :3671          CR  955136           Y2000.00       40007954          Promotional Accrual                                        232353                 25462D2   Both      Both      201307012013070720130701201307071000                     0
325002149149H2013072620130726PCNZD1000000078      trevens   :3672                                0.00                                                                                                              25465H                        201307012013070720130701201307070                        0
325002149149D2013072620130726PCNZD1000000078      trevens   :3672          DR  170534           Y10000.00      40007954          Promotional Accrual                                        232353                 25465D1   Both      Both      201307012013070720130701201307071000                     0
325002149149D2013072620130726PCNZD1000000078      trevens   :3672          CR  955136           Y10000.00      40007954          Promotional Accrual                                        232353                 25465D2   Both      Both      201307012013070720130701201307071000                     0
325002149149H2013072620130726PCNZD1000000078      trevens   :3672                                0.00                                                                                                              25467H                        201307012013070720130701201307070                        0
325002149149D2013072620130726PCNZD1000000078      trevens   :3672          DR  170534           Y2000.00       40007954          Promotional Accrual                                        232353                 25467D1   Both      Both      201307012013070720130701201307071000                     0
325002149149D2013072620130726PCNZD1000000078      trevens   :3672          CR  955136           Y2000.00       40007954          Promotional Accrual                                        232353                 25467D2   Both      Both      201307012013070720130701201307071000                     0
325002149149H2013072620130726PCNZD1000000079      trevens   :3673                                0.00                                                                                                              25471H                        201307082013071420130708201307140                        0
325002149149D2013072620130726PCNZD1000000079      trevens   :3673          DR  170534           Y10000.00      40007954          Promotional Accrual                                        232353                 25471D1   Both      Both      201307082013071420130708201307141000                     0
325002149149D2013072620130726PCNZD1000000079      trevens   :3673          CR  955136           Y10000.00      40007954          Promotional Accrual                                        232353                 25471D2   Both      Both      201307082013071420130708201307141000                     0
325002149149H2013072620130726PCNZD1000000079      trevens   :3673                                0.00                                                                                                              25472H                        201307082013071420130708201307140                        0
325002149149D2013072620130726PCNZD1000000079      trevens   :3673          WDR 170534           Y5000.00       40007954          Promotional Accrual                                        232353                 25472D1   Both      Both      201307082013071420130708201307141000                     0
325002149149D2013072620130726PCNZD1000000079      trevens   :3673          WCR 955136           Y5000.00       40007954          Promotional Accrual                                        232353                 25472D2   Both      Both      201307082013071420130708201307141000                     0
325002149149H2013072620130726PCNZD1000000074      trevens   :3668                                0.00                                                                                                              25450H                        201307012013070720130701201307070                        0
325002149149D2013072620130726PCNZD1000000074      trevens   :3668          DR  170534           Y10000.00      40007954          Promotional Accrual                                        232353                 25450D1   Both      Both      201307012013070720130701201307071000                     0
325002149149D2013072620130726PCNZD1000000074      trevens   :3668          CR  955136           Y10000.00      40007954          Promotional Accrual                                        232353                 25450D2   Both      Both      201307012013070720130701201307071000                     0
325002149149H2013072620130726PCNZD1000000075      trevens   :3669                                0.00                                                                                                              25451H                        201307012013070720130701201307070                        0
325002149149D2013072620130726PCNZD1000000075      trevens   :3669          DR  170534           Y10000.00      40007954          Promotional Accrual                                        232353                 25451D1   Both      Both      201307012013070720130701201307071000                     0
325002149149D2013072620130726PCNZD1000000075      trevens   :3669          CR  955136           Y10000.00      40007954          Promotional Accrual                                        232353                 25451D2   Both      Both      201307012013070720130701201307071000                     0
325002149149H2013072620130726PCNZD1000000076      trevens   :3670                                0.00                                                                                                              25455H                        201307012013070720130701201307070                        0
325002149149D2013072620130726PCNZD1000000076      trevens   :3670          DR  170534           Y10000.00      40007954          Promotional Accrual                                        232353                 25455D1   Both      Both      201307012013070720130701201307071000                     0
325002149149D2013072620130726PCNZD1000000076      trevens   :3670          CR  955136           Y10000.00      40007954          Promotional Accrual                                        232353                 25455D2   Both      Both      201307012013070720130701201307071000                     0
325002149149H2013072620130726PCNZD1000000076      trevens   :3670                                0.00                                                                                                              25459H                        201307012013070720130701201307070                        1
325002149149D2013072620130726PCNZD1000000076      trevens   :3670          WDR 170534           Y2000.00       40007954          Promotional Accrual                                        232353                 25459D1   Both      Both      201307012013070720130701201307071000                     1
325002149149D2013072620130726PCNZD1000000076      trevens   :3670          WCR 955136           Y2000.00       40007954          Promotional Accrual                                        232353                 25459D2   Both      Both      201307012013070720130701201307071000                     1
325002149149H2013072620130726PCNZD1000000077      trevens   :3671                                0.00                                                                                                              25460H                        201307012013070720130701201307070                        0
325002149149D2013072620130726PCNZD1000000077      trevens   :3671          DR  170534           Y10000.00      40007954          Promotional Accrual                                        232353                 25460D1   Both      Both      201307012013070720130701201307071000                     0
325002149149D2013072620130726PCNZD1000000077      trevens   :3671          CR  955136           Y10000.00      40007954          Promotional Accrual                                        232353                 25460D2   Both      Both      201307012013070720130701201307071000                     0
325002149149H2013072620130726PCNZD1000000077      trevens   :3671                                0.00                                                                                                              25462H                        201307012013070720130701201307070                        0
325002149149D2013072620130726PCNZD1000000077      trevens   :3671          DR  170534           Y2000.00       40007954          Promotional Accrual                                        232353                 25462D1   Both      Both      201307012013070720130701201307071000                     0
325002149149D2013072620130726PCNZD1000000077      trevens   :3671          CR  955136           Y2000.00       40007954          Promotional Accrual                                        232353                 25462D2   Both      Both      201307012013070720130701201307071000                     0
325002149149H2013072620130726PCNZD1000000078      trevens   :3672                                0.00                                                                                                              25465H                        201307012013070720130701201307070                        0
325002149149D2013072620130726PCNZD1000000078      trevens   :3672          DR  170534           Y10000.00      40007954          Promotional Accrual                                        232353                 25465D1   Both      Both      201307012013070720130701201307071000                     0
325002149149D2013072620130726PCNZD1000000078      trevens   :3672          CR  955136           Y10000.00      40007954          Promotional Accrual                                        232353                 25465D2   Both      Both      201307012013070720130701201307071000                     0
325002149149H2013072620130726PCNZD1000000078      trevens   :3672                                0.00                                                                                                              25467H                        201307012013070720130701201307070                        0
325002149149D2013072620130726PCNZD1000000078      trevens   :3672          DR  170534           Y2000.00       40007954          Promotional Accrual                                        232353                 25467D1   Both      Both      201307012013070720130701201307071000                     0
325002149149D2013072620130726PCNZD1000000078      trevens   :3672          CR  955136           Y2000.00       40007954          Promotional Accrual                                        232353                 25467D2   Both      Both      201307012013070720130701201307071000                     0
325002149149H2013072620130726PCNZD1000000079      trevens   :3673                                0.00                                                                                                              25471H                        201307082013071420130708201307140                        0
325002149149D2013072620130726PCNZD1000000079      trevens   :3673          DR  170534           Y10000.00      40007954          Promotional Accrual                                        232353                 25471D1   Both      Both      201307082013071420130708201307141000                     0
325002149149D2013072620130726PCNZD1000000079      trevens   :3673          CR  955136           Y10000.00      40007954          Promotional Accrual                                        232353                 25471D2   Both      Both      201307082013071420130708201307141000                     0
325002149149H2013072620130726PCNZD1000000079      trevens   :3673                                0.00                                                                                                              25472H                        201307082013071420130708201307140                        0
325002149149D2013072620130726PCNZD1000000079      trevens   :3673          WDR 170534           Y5000.00       40007954          Promotional Accrual                                        232353                 25472D1   Both      Both      201307082013071420130708201307141000                     0
325002149149D2013072620130726PCNZD1000000079      trevens   :3673          WCR 955136           Y5000.00       40007954          Promotional Accrual                                        232353                 25472D2   Both      Both      201307082013071420130708201307141000                     0
325002149149H2013072620130726PCNZD1000000074      trevens   :3668                                0.00                                                                                                              25450H                        201307012013070720130701201307070                        0
325002149149D2013072620130726PCNZD1000000074      trevens   :3668          DR  170534           Y10000.00      40007954          Promotional Accrual                                        232353                 25450D1   Both      Both      201307012013070720130701201307071000                     0
325002149149D2013072620130726PCNZD1000000074      trevens   :3668          CR  955136           Y10000.00      40007954          Promotional Accrual                                        232353                 25450D2   Both      Both      201307012013070720130701201307071000                     0
325002149149H2013072620130726PCNZD1000000075      trevens   :3669                                0.00                                                                                                              25451H                        201307012013070720130701201307070                        0
325002149149D2013072620130726PCNZD1000000075      trevens   :3669          DR  170534           Y10000.00      40007954          Promotional Accrual                                        232353                 25451D1   Both      Both      201307012013070720130701201307071000                     0
325002149149D2013072620130726PCNZD1000000075      trevens   :3669          CR  955136           Y10000.00      40007954          Promotional Accrual                                        232353                 25451D2   Both      Both      201307012013070720130701201307071000                     0
325002149149H2013072620130726PCNZD1000000076      trevens   :3670                                0.00                                                                                                              25455H                        201307012013070720130701201307070                        0
325002149149D2013072620130726PCNZD1000000076      trevens   :3670          DR  170534           Y10000.00      40007954          Promotional Accrual                                        232353                 25455D1   Both      Both      201307012013070720130701201307071000                     0
325002149149D2013072620130726PCNZD1000000076      trevens   :3670          CR  955136           Y10000.00      40007954          Promotional Accrual                                        232353                 25455D2   Both      Both      201307012013070720130701201307071000                     0
325002149149H2013072620130726PCNZD1000000076      trevens   :3670                                0.00                                                                                                              25459H                        201307012013070720130701201307070                        1
325002149149D2013072620130726PCNZD1000000076      trevens   :3670          WDR 170534           Y2000.00       40007954          Promotional Accrual                                        232353                 25459D1   Both      Both      201307012013070720130701201307071000                     1
325002149149D2013072620130726PCNZD1000000076      trevens   :3670          WCR 955136           Y2000.00       40007954          Promotional Accrual                                        232353                 25459D2   Both      Both      201307012013070720130701201307071000                     1
325002149149H2013072620130726PCNZD1000000077      trevens   :3671                                0.00                                                                                                              25460H                        201307012013070720130701201307070                        0
325002149149D2013072620130726PCNZD1000000077      trevens   :3671          DR  170534           Y10000.00      40007954          Promotional Accrual                                        232353                 25460D1   Both      Both      201307012013070720130701201307071000                     0
325002149149D2013072620130726PCNZD1000000077      trevens   :3671          CR  955136           Y10000.00      40007954          Promotional Accrual                                        232353                 25460D2   Both      Both      201307012013070720130701201307071000                     0
325002149149H2013072620130726PCNZD1000000077      trevens   :3671                                0.00                                                                                                              25462H                        201307012013070720130701201307070                        0
325002149149D2013072620130726PCNZD1000000077      trevens   :3671          DR  170534           Y2000.00       40007954          Promotional Accrual                                        232353                 25462D1   Both      Both      201307012013070720130701201307071000                     0
325002149149D2013072620130726PCNZD1000000077      trevens   :3671          CR  955136           Y2000.00       40007954          Promotional Accrual                                        232353                 25462D2   Both      Both      201307012013070720130701201307071000                     0
325002149149H2013072620130726PCNZD1000000078      trevens   :3672                                0.00                                                                                                              25465H                        201307012013070720130701201307070                        0
325002149149D2013072620130726PCNZD1000000078      trevens   :3672          DR  170534           Y10000.00      40007954          Promotional Accrual                                        232353                 25465D1   Both      Both      201307012013070720130701201307071000                     0
325002149149D2013072620130726PCNZD1000000078      trevens   :3672          CR  955136           Y10000.00      40007954          Promotional Accrual                                        232353                 25465D2   Both      Both      201307012013070720130701201307071000                     0
325002149149H2013072620130726PCNZD1000000078      trevens   :3672                                0.00                                                                                                              25467H                        201307012013070720130701201307070                        0
325002149149D2013072620130726PCNZD1000000078      trevens   :3672          DR  170534           Y2000.00       40007954          Promotional Accrual                                        232353                 25467D1   Both      Both      201307012013070720130701201307071000                     0
325002149149D2013072620130726PCNZD1000000078      trevens   :3672          CR  955136           Y2000.00       40007954          Promotional Accrual                                        232353                 25467D2   Both      Both      201307012013070720130701201307071000                     0
325002149149H2013072620130726PCNZD1000000079      trevens   :3673                                0.00                                                                                                              25471H                        201307082013071420130708201307140                        0
325002149149D2013072620130726PCNZD1000000079      trevens   :3673          DR  170534           Y10000.00      40007954          Promotional Accrual                                        232353                 25471D1   Both      Both      201307082013071420130708201307141000                     0
325002149149D2013072620130726PCNZD1000000079      trevens   :3673          CR  955136           Y10000.00      40007954          Promotional Accrual                                        232353                 25471D2   Both      Both      201307082013071420130708201307141000                     0
325002149149H2013072620130726PCNZD1000000079      trevens   :3673                                0.00                                                                                                              25472H                        201307082013071420130708201307140                        0
325002149149D2013072620130726PCNZD1000000079      trevens   :3673          WDR 170534           Y5000.00       40007954          Promotional Accrual                                        232353                 25472D1   Both      Both      201307082013071420130708201307141000                     0
325002149149D2013072620130726PCNZD1000000079      trevens   :3673          WCR 955136           Y5000.00       40007954          Promotional Accrual                                        232353                 25472D2   Both      Both      201307082013071420130708201307141000                     0
325002149149H2013072620130726PCNZD1000000074      trevens   :3668                                0.00                                                                                                              25450H                        201307012013070720130701201307070                        0
325002149149D2013072620130726PCNZD1000000074      trevens   :3668          DR  170534           Y10000.00      40007954          Promotional Accrual                                        232353                 25450D1   Both      Both      201307012013070720130701201307071000                     0
325002149149D2013072620130726PCNZD1000000074      trevens   :3668          CR  955136           Y10000.00      40007954          Promotional Accrual                                        232353                 25450D2   Both      Both      201307012013070720130701201307071000                     0
325002149149H2013072620130726PCNZD1000000075      trevens   :3669                                0.00                                                                                                              25451H                        201307012013070720130701201307070                        0
325002149149D2013072620130726PCNZD1000000075      trevens   :3669          DR  170534           Y10000.00      40007954          Promotional Accrual                                        232353                 25451D1   Both      Both      201307012013070720130701201307071000                     0
325002149149D2013072620130726PCNZD1000000075      trevens   :3669          CR  955136           Y10000.00      40007954          Promotional Accrual                                        232353                 25451D2   Both      Both      201307012013070720130701201307071000                     0
325002149149H2013072620130726PCNZD1000000076      trevens   :3670                                0.00                                                                                                              25455H                        201307012013070720130701201307070                        0
325002149149D2013072620130726PCNZD1000000076      trevens   :3670          DR  170534           Y10000.00      40007954          Promotional Accrual                                        232353                 25455D1   Both      Both      201307012013070720130701201307071000                     0
325002149149D2013072620130726PCNZD1000000076      trevens   :3670          CR  955136           Y10000.00      40007954          Promotional Accrual                                        232353                 25455D2   Both      Both      201307012013070720130701201307071000                     0
325002149149H2013072620130726PCNZD1000000076      trevens   :3670                                0.00                                                                                                              25459H                        201307012013070720130701201307070                        1
325002149149D2013072620130726PCNZD1000000076      trevens   :3670          WDR 170534           Y2000.00       40007954          Promotional Accrual                                        232353                 25459D1   Both      Both      201307012013070720130701201307071000                     1
325002149149D2013072620130726PCNZD1000000076      trevens   :3670          WCR 955136           Y2000.00       40007954          Promotional Accrual                                        232353                 25459D2   Both      Both      201307012013070720130701201307071000                     1
325002149149H2013072620130726PCNZD1000000077      trevens   :3671                                0.00                                                                                                              25460H                        201307012013070720130701201307070                        0
325002149149D2013072620130726PCNZD1000000077      trevens   :3671          DR  170534           Y10000.00      40007954          Promotional Accrual                                        232353                 25460D1   Both      Both      201307012013070720130701201307071000                     0
325002149149D2013072620130726PCNZD1000000077      trevens   :3671          CR  955136           Y10000.00      40007954          Promotional Accrual                                        232353                 25460D2   Both      Both      201307012013070720130701201307071000                     0
325002149149H2013072620130726PCNZD1000000077      trevens   :3671                                0.00                                                                                                              25462H                        201307012013070720130701201307070                        0
325002149149D2013072620130726PCNZD1000000077      trevens   :3671          DR  170534           Y2000.00       40007954          Promotional Accrual                                        232353                 25462D1   Both      Both      201307012013070720130701201307071000                     0
325002149149D2013072620130726PCNZD1000000077      trevens   :3671          CR  955136           Y2000.00       40007954          Promotional Accrual                                        232353                 25462D2   Both      Both      201307012013070720130701201307071000                     0
325002149149H2013072620130726PCNZD1000000078      trevens   :3672                                0.00                                                                                                              25465H                        201307012013070720130701201307070                        0
325002149149D2013072620130726PCNZD1000000078      trevens   :3672          DR  170534           Y10000.00      40007954          Promotional Accrual                                        232353                 25465D1   Both      Both      201307012013070720130701201307071000                     0
325002149149D2013072620130726PCNZD1000000078      trevens   :3672          CR  955136           Y10000.00      40007954          Promotional Accrual                                        232353                 25465D2   Both      Both      201307012013070720130701201307071000                     0
325002149149H2013072620130726PCNZD1000000078      trevens   :3672                                0.00                                                                                                              25467H                        201307012013070720130701201307070                        0
325002149149D2013072620130726PCNZD1000000078      trevens   :3672          DR  170534           Y2000.00       40007954          Promotional Accrual                                        232353                 25467D1   Both      Both      201307012013070720130701201307071000                     0
325002149149D2013072620130726PCNZD1000000078      trevens   :3672          CR  955136           Y2000.00       40007954          Promotional Accrual                                        232353                 25467D2   Both      Both      201307012013070720130701201307071000                     0
325002149149H2013072620130726PCNZD1000000079      trevens   :3673                                0.00                                                                                                              25471H                        201307082013071420130708201307140                        0
325002149149D2013072620130726PCNZD1000000079      trevens   :3673          DR  170534           Y10000.00      40007954          Promotional Accrual                                        232353                 25471D1   Both      Both      201307082013071420130708201307141000                     0
325002149149D2013072620130726PCNZD1000000079      trevens   :3673          CR  955136           Y10000.00      40007954          Promotional Accrual                                        232353                 25471D2   Both      Both      201307082013071420130708201307141000                     0
325002149149H2013072620130726PCNZD1000000079      trevens   :3673                                0.00                                                                                                              25472H                        201307082013071420130708201307140                        0
325002149149D2013072620130726PCNZD1000000079      trevens   :3673          WDR 170534           Y5000.00       40007954          Promotional Accrual                                        232353                 25472D1   Both      Both      201307082013071420130708201307141000                     0
325002149149D2013072620130726PCNZD1000000079      trevens   :3673          WCR 955136           Y5000.00       40007954          Promotional Accrual                                        232353                 25472D2   Both      Both      201307082013071420130708201307141000                     0
325002149149H2013072620130726PCNZD1000000074      trevens   :3668                                0.00                                                                                                              25450H                        201307012013070720130701201307070                        0
325002149149D2013072620130726PCNZD1000000074      trevens   :3668          DR  170534           Y10000.00      40007954          Promotional Accrual                                        232353                 25450D1   Both      Both      201307012013070720130701201307071000                     0
325002149149D2013072620130726PCNZD1000000074      trevens   :3668          CR  955136           Y10000.00      40007954          Promotional Accrual                                        232353                 25450D2   Both      Both      201307012013070720130701201307071000                     0
325002149149H2013072620130726PCNZD1000000075      trevens   :3669                                0.00                                                                                                              25451H                        201307012013070720130701201307070                        0
325002149149D2013072620130726PCNZD1000000075      trevens   :3669          DR  170534           Y10000.00      40007954          Promotional Accrual                                        232353                 25451D1   Both      Both      201307012013070720130701201307071000                     0
325002149149D2013072620130726PCNZD1000000075      trevens   :3669          CR  955136           Y10000.00      40007954          Promotional Accrual                                        232353                 25451D2   Both      Both      201307012013070720130701201307071000                     0
325002149149H2013072620130726PCNZD1000000076      trevens   :3670                                0.00                                                                                                              25455H                        201307012013070720130701201307070                        0
325002149149D2013072620130726PCNZD1000000076      trevens   :3670          DR  170534           Y10000.00      40007954          Promotional Accrual                                        232353                 25455D1   Both      Both      201307012013070720130701201307071000                     0
325002149149D2013072620130726PCNZD1000000076      trevens   :3670          CR  955136           Y10000.00      40007954          Promotional Accrual                                        232353                 25455D2   Both      Both      201307012013070720130701201307071000                     0
325002149149H2013072620130726PCNZD1000000076      trevens   :3670                                0.00                                                                                                              25459H                        201307012013070720130701201307070                        1
325002149149D2013072620130726PCNZD1000000076      trevens   :3670          WDR 170534           Y2000.00       40007954          Promotional Accrual                                        232353                 25459D1   Both      Both      201307012013070720130701201307071000                     1
325002149149D2013072620130726PCNZD1000000076      trevens   :3670          WCR 955136           Y2000.00       40007954          Promotional Accrual                                        232353                 25459D2   Both      Both      201307012013070720130701201307071000                     1
325002149149H2013072620130726PCNZD1000000077      trevens   :3671                                0.00                                                                                                              25460H                        201307012013070720130701201307070                        0
325002149149D2013072620130726PCNZD1000000077      trevens   :3671          DR  170534           Y10000.00      40007954          Promotional Accrual                                        232353                 25460D1   Both      Both      201307012013070720130701201307071000                     0
325002149149D2013072620130726PCNZD1000000077      trevens   :3671          CR  955136           Y10000.00      40007954          Promotional Accrual                                        232353                 25460D2   Both      Both      201307012013070720130701201307071000                     0
325002149149H2013072620130726PCNZD1000000077      trevens   :3671                                0.00                                                                                                              25462H                        201307012013070720130701201307070                        0
325002149149D2013072620130726PCNZD1000000077      trevens   :3671          DR  170534           Y2000.00       40007954          Promotional Accrual                                        232353                 25462D1   Both      Both      201307012013070720130701201307071000                     0
325002149149D2013072620130726PCNZD1000000077      trevens   :3671          CR  955136           Y2000.00       40007954          Promotional Accrual                                        232353                 25462D2   Both      Both      201307012013070720130701201307071000                     0
325002149149H2013072620130726PCNZD1000000078      trevens   :3672                                0.00                                                                                                              25465H                        201307012013070720130701201307070                        0
325002149149D2013072620130726PCNZD1000000078      trevens   :3672          DR  170534           Y10000.00      40007954          Promotional Accrual                                        232353                 25465D1   Both      Both      201307012013070720130701201307071000                     0
325002149149D2013072620130726PCNZD1000000078      trevens   :3672          CR  955136           Y10000.00      40007954          Promotional Accrual                                        232353                 25465D2   Both      Both      201307012013070720130701201307071000                     0
325002149149H2013072620130726PCNZD1000000078      trevens   :3672                                0.00                                                                                                              25467H                        201307012013070720130701201307070                        0
325002149149D2013072620130726PCNZD1000000078      trevens   :3672          DR  170534           Y2000.00       40007954          Promotional Accrual                                        232353                 25467D1   Both      Both      201307012013070720130701201307071000                     0
325002149149D2013072620130726PCNZD1000000078      trevens   :3672          CR  955136           Y2000.00       40007954          Promotional Accrual                                        232353                 25467D2   Both      Both      201307012013070720130701201307071000                     0
325002149149H2013072620130726PCNZD1000000079      trevens   :3673                                0.00                                                                                                              25471H                        201307082013071420130708201307140                        0
325002149149D2013072620130726PCNZD1000000079      trevens   :3673          DR  170534           Y10000.00      40007954          Promotional Accrual                                        232353                 25471D1   Both      Both      201307082013071420130708201307141000                     0
325002149149D2013072620130726PCNZD1000000079      trevens   :3673          CR  955136           Y10000.00      40007954          Promotional Accrual                                        232353                 25471D2   Both      Both      201307082013071420130708201307141000                     0
325002149149H2013072620130726PCNZD1000000079      trevens   :3673                                0.00                                                                                                              25472H                        201307082013071420130708201307140                        0
325002149149D2013072620130726PCNZD1000000079      trevens   :3673          WDR 170534           Y5000.00       40007954          Promotional Accrual                                        232353                 25472D1   Both      Both      201307082013071420130708201307141000                     0
325002149149D2013072620130726PCNZD1000000079      trevens   :3673          WCR 955136           Y5000.00       40007954          Promotional Accrual                                        232353                 25472D2   Both      Both      201307082013071420130708201307141000                     0
325002149149H2013072620130726PCNZD1000000074      trevens   :3668                                0.00                                                                                                              25450H                        201307012013070720130701201307070                        0
325002149149D2013072620130726PCNZD1000000074      trevens   :3668          DR  170534           Y10000.00      40007954          Promotional Accrual                                        232353                 25450D1   Both      Both      201307012013070720130701201307071000                     0
325002149149D2013072620130726PCNZD1000000074      trevens   :3668          CR  955136           Y10000.00      40007954          Promotional Accrual                                        232353                 25450D2   Both      Both      201307012013070720130701201307071000                     0
