325002H2607201326072013PC149       NZD  1000000077      trevens   :3671                                0.00                                                                                                              25460H                        010720130707201301072013070720130                        0149       
325002D2607201326072013PC149       NZD  1000000077      trevens   :3671          DR  170534           Y10000.00      40007954          Promotional Accrual                                        232353                 25460D1   Both      Both      010720130707201301072013070720131000                     0149       
325002D2607201326072013PC149       NZD  1000000077      trevens   :3671          CR  955136           Y10000.00      40007954          Promotional Accrual                                        232353                 25460D2   Both      Both      010720130707201301072013070720131000                     0149       
