325002H2607201326072013PC149       NZD  1000000076      trevens   :3670                                0.00                                                                                                              25459H                        010720130707201301072013070720130                        1149       
325002D2607201326072013PC149       NZD  1000000076      trevens   :3670          WDR 170534           Y2000.00       40007954          Promotional Accrual                                        232353                 25459D1   Both      Both      010720130707201301072013070720131000                     1149       
325002D2607201326072013PC149       NZD  1000000076      trevens   :3670          WCR 955136           Y2000.00       40007954          Promotional Accrual                                        232353                 25459D2   Both      Both      010720130707201301072013070720131000                     1149       
