325002H2607201326072013PC149       NZD  1000000078      trevens   :3672                                0.00                                                                                                              25467H                        010720130707201301072013070720130                        0149       
325002D2607201326072013PC149       NZD  1000000078      trevens   :3672          DR  170534           Y2000.00       40007954          Promotional Accrual                                        232353                 25467D1   Both      Both      010720130707201301072013070720131000                     0149       
325002D2607201326072013PC149       NZD  1000000078      trevens   :3672          CR  955136           Y2000.00       40007954          Promotional Accrual                                        232353                 25467D2   Both      Both      010720130707201301072013070720131000                     0149       
