325002H2607201326072013PC149       NZD  1000000079      trevens   :3673                                0.00                                                                                                              25472H                        080720131407201308072013140720130                        0149       
325002D2607201326072013PC149       NZD  1000000079      trevens   :3673          WDR 170534           Y5000.00       40007954          Promotional Accrual                                        232353                 25472D1   Both      Both      080720131407201308072013140720131000                     0149       
325002D2607201326072013PC149       NZD  1000000079      trevens   :3673          WCR 955136           Y5000.00       40007954          Promotional Accrual                                        232353                 25472D2   Both      Both      080720131407201308072013140720131000                     0149       
