325002H2607201326072013PC149       NZD  1000000075      trevens   :3669                                0.00                                                                                                              25451H                        010720130707201301072013070720130                        0149       
325002D2607201326072013PC149       NZD  1000000075      trevens   :3669          DR  170534           Y10000.00      40007954          Promotional Accrual                                        232353                 25451D1   Both      Both      010720130707201301072013070720131000                     0149       
325002D2607201326072013PC149       NZD  1000000075      trevens   :3669          CR  955136           Y10000.00      40007954          Promotional Accrual                                        232353                 25451D2   Both      Both      010720130707201301072013070720131000                     0149       
